{
  "_format": "hh-sol-artifact-1",
  "contractName": "RiskProtocol",
  "sourceName": "contracts/riskprotocol.sol",
  "abi": [
    {
      "inputs": [
        {
          "internalType": "uint256",
          "name": "cap",
          "type": "uint256"
        },
        {
          "internalType": "uint256",
          "name": "reward",
          "type": "uint256"
        }
      ],
      "stateMutability": "undefined",
      "type": "constructor"
    },
    {
      "anonymous": false,
      "inputs": [
        {
          "indexed": true,
          "internalType": "address",
          "name": "owner",
          "type": "address"
        },
        {
          "indexed": true,
          "internalType": "address",
          "name": "spender",
          "type": "address"
        },
        {
          "indexed": false,
          "internalType": "uint256",
          "name": "value",
          "type": "uint256"
        }
      ],
      "name": "Approval",
      "type": "event"
    },
    {
      "anonymous": false,
      "inputs": [
        {
          "indexed": true,
          "internalType": "address",
          "name": "previousOwner",
          "type": "address"
        },
        {
          "indexed": true,
          "internalType": "address",
          "name": "newOwner",
          "type": "address"
        }
      ],
      "name": "OwnershipTransferred",
      "type": "event"
    },
    {
      "anonymous": false,
      "inputs": [
        {
          "indexed": false,
          "internalType": "address",
          "name": "account",
          "type": "address"
        }
      ],
      "name": "Paused",
      "type": "event"
    },
    {
      "anonymous": false,
      "inputs": [
        {
          "indexed": true,
          "internalType": "uint256",
          "name": "epoch",
          "type": "uint256"
        },
        {
          "indexed": false,
          "internalType": "uint256",
          "name": "totalSupply",
          "type": "uint256"
        }
      ],
      "name": "Rebase",
      "type": "event"
    },
    {
      "anonymous": false,
      "inputs": [
        {
          "indexed": true,
          "internalType": "address",
          "name": "from",
          "type": "address"
        },
        {
          "indexed": true,
          "internalType": "address",
          "name": "to",
          "type": "address"
        },
        {
          "indexed": false,
          "internalType": "uint256",
          "name": "value",
          "type": "uint256"
        }
      ],
      "name": "Transfer",
      "type": "event"
    },
    {
      "anonymous": false,
      "inputs": [
        {
          "indexed": false,
          "internalType": "address",
          "name": "account",
          "type": "address"
        }
      ],
      "name": "Unpaused",
      "type": "event"
    },
    {
      "inputs": [
        {
          "internalType": "address",
          "name": "owner",
          "type": "address"
        },
        {
          "internalType": "address",
          "name": "spender",
          "type": "address"
        }
      ],
      "name": "allowance",
      "outputs": [
        {
          "internalType": "uint256",
          "name": "",
          "type": "uint256"
        }
      ],
      "stateMutability": "view",
      "type": "function"
    },
    {
      "inputs": [
        {
          "internalType": "address",
          "name": "spender",
          "type": "address"
        },
        {
          "internalType": "uint256",
          "name": "amount",
          "type": "uint256"
        }
      ],
      "name": "approve",
      "outputs": [
        {
          "internalType": "bool",
          "name": "",
          "type": "bool"
        }
      ],
      "stateMutability": "nonpayable",
      "type": "function"
    },
    {
      "inputs": [
        {
          "internalType": "address",
          "name": "account",
          "type": "address"
        }
      ],
      "name": "balanceOf",
      "outputs": [
        {
          "internalType": "uint256",
          "name": "",
          "type": "uint256"
        }
      ],
      "stateMutability": "view",
      "type": "function"
    },
    {
      "inputs": [],
      "name": "blockReward",
      "outputs": [
        {
          "internalType": "uint256",
          "name": "",
          "type": "uint256"
        }
      ],
      "stateMutability": "view",
      "type": "function"
    },
    {
      "inputs": [
        {
          "internalType": "uint256",
          "name": "amount",
          "type": "uint256"
        }
      ],
      "name": "burn",
      "outputs": [],
      "stateMutability": "nonpayable",
      "type": "function"
    },
    {
      "inputs": [
        {
          "internalType": "address",
          "name": "account",
          "type": "address"
        },
        {
          "internalType": "uint256",
          "name": "amount",
          "type": "uint256"
        }
      ],
      "name": "burnFrom",
      "outputs": [],
      "stateMutability": "nonpayable",
      "type": "function"
    },
    {
      "inputs": [],
      "name": "cap",
      "outputs": [
        {
          "internalType": "uint256",
          "name": "",
          "type": "uint256"
        }
      ],
      "stateMutability": "view",
      "type": "function"
    },
    {
      "inputs": [],
      "name": "decimals",
      "outputs": [
        {
          "internalType": "uint8",
          "name": "",
          "type": "uint8"
        }
      ],
      "stateMutability": "view",
      "type": "function"
    },
    {
      "inputs": [
        {
          "internalType": "address",
          "name": "spender",
          "type": "address"
        },
        {
          "internalType": "uint256",
          "name": "subtractedValue",
          "type": "uint256"
        }
      ],
      "name": "decreaseAllowance",
      "outputs": [
        {
          "internalType": "bool",
          "name": "",
          "type": "bool"
        }
      ],
      "stateMutability": "nonpayable",
      "type": "function"
    },
    {
      "inputs": [],
      "name": "destroy",
      "outputs": [],
      "stateMutability": "nonpayable",
      "type": "function"
    },
    {
      "inputs": [
        {
          "internalType": "address",
          "name": "spender",
          "type": "address"
        },
        {
          "internalType": "uint256",
          "name": "addedValue",
          "type": "uint256"
        }
      ],
      "name": "increaseAllowance",
      "outputs": [
        {
          "internalType": "bool",
          "name": "",
          "type": "bool"
        }
      ],
      "stateMutability": "nonpayable",
      "type": "function"
    },
    {
      "inputs": [],
      "name": "name",
      "outputs": [
        {
          "internalType": "string",
          "name": "",
          "type": "string"
        }
      ],
      "stateMutability": "view",
      "type": "function"
    },
    {
      "inputs": [],
      "name": "owner",
      "outputs": [
        {
          "internalType": "address",
          "name": "",
          "type": "address"
        }
      ],
      "stateMutability": "view",
      "type": "function"
    },
    {
      "inputs": [],
      "name": "pause",
      "outputs": [],
      "stateMutability": "nonpayable",
      "type": "function"
    },
    {
      "inputs": [],
      "name": "paused",
      "outputs": [
        {
          "internalType": "bool",
          "name": "",
          "type": "bool"
        }
      ],
      "stateMutability": "view",
      "type": "function"
    },
    {
      "inputs": [
        {
          "internalType": "uint256",
          "name": "epoch",
          "type": "uint256"
        },
        {
          "internalType": "uint256",
          "name": "supplyDelta",
          "type": "uint256"
        }
      ],
      "name": "rebase",
      "outputs": [
        {
          "internalType": "uint256",
          "name": "",
          "type": "uint256"
        }
      ],
      "stateMutability": "nonpayable",
      "type": "function"
    },
    {
      "inputs": [],
      "name": "renounceOwnership",
      "outputs": [],
      "stateMutability": "nonpayable",
      "type": "function"
    },
    {
      "inputs": [
        {
          "internalType": "uint256",
          "name": "reward",
          "type": "uint256"
        }
      ],
      "name": "setBlockReward",
      "outputs": [],
      "stateMutability": "nonpayable",
      "type": "function"
    },
    {
      "inputs": [],
      "name": "symbol",
      "outputs": [
        {
          "internalType": "string",
          "name": "",
          "type": "string"
        }
      ],
      "stateMutability": "view",
      "type": "function"
    },
    {
      "inputs": [],
      "name": "totalSupply",
      "outputs": [
        {
          "internalType": "uint256",
          "name": "",
          "type": "uint256"
        }
      ],
      "stateMutability": "view",
      "type": "function"
    },
    {
      "inputs": [
        {
          "internalType": "address",
          "name": "to",
          "type": "address"
        },
        {
          "internalType": "uint256",
          "name": "amount",
          "type": "uint256"
        }
      ],
      "name": "transfer",
      "outputs": [
        {
          "internalType": "bool",
          "name": "",
          "type": "bool"
        }
      ],
      "stateMutability": "nonpayable",
      "type": "function"
    },
    {
      "inputs": [
        {
          "internalType": "address",
          "name": "from",
          "type": "address"
        },
        {
          "internalType": "address",
          "name": "to",
          "type": "address"
        },
        {
          "internalType": "uint256",
          "name": "amount",
          "type": "uint256"
        }
      ],
      "name": "transferFrom",
      "outputs": [
        {
          "internalType": "bool",
          "name": "",
          "type": "bool"
        }
      ],
      "stateMutability": "nonpayable",
      "type": "function"
    },
    {
      "inputs": [
        {
          "internalType": "address",
          "name": "newOwner",
          "type": "address"
        }
      ],
      "name": "transferOwnership",
      "outputs": [],
      "stateMutability": "nonpayable",
      "type": "function"
    },
    {
      "inputs": [],
      "name": "unpause",
      "outputs": [],
      "stateMutability": "nonpayable",
      "type": "function"
    }
  ],
  "bytecode": "0x60a06040523480156200001157600080fd5b50604051620035b2380380620035b28339818101604052810190620000379190620006a7565b62000047620001f560201b60201c565b600a6200005591906200087e565b82620000629190620008cf565b6040518060400160405280600c81526020017f5269736b50726f746f636f6c00000000000000000000000000000000000000008152506040518060400160405280600381526020017f52504300000000000000000000000000000000000000000000000000000000008152508160039081620000df919062000b8a565b508060049081620000f1919062000b8a565b505050600081116200013a576040517f08c379a0000000000000000000000000000000000000000000000000000000008152600401620001319062000cd2565b60405180910390fd5b8060808181525050506000600560006101000a81548160ff0219169083151502179055506200017e62000172620001fe60201b60201c565b6200020660201b60201c565b620001bc3362000193620001f560201b60201c565b600a620001a191906200087e565b6102bc620001b09190620008cf565b620002cc60201b60201c565b620001cc620001f560201b60201c565b600a620001da91906200087e565b81620001e79190620008cf565b600681905550505062000e41565b60006012905090565b600033905090565b6000600560019054906101000a900473ffffffffffffffffffffffffffffffffffffffff16905081600560016101000a81548173ffffffffffffffffffffffffffffffffffffffff021916908373ffffffffffffffffffffffffffffffffffffffff1602179055508173ffffffffffffffffffffffffffffffffffffffff168173ffffffffffffffffffffffffffffffffffffffff167f8be0079c531659141344cd1fd0a4f28419497f9722a3daafe3b4186f6b6457e060405160405180910390a35050565b620002dc6200035d60201b60201c565b81620002f26200036760201b620007231760201c565b620002fe919062000cf4565b111562000342576040517f08c379a0000000000000000000000000000000000000000000000000000000008152600401620003399062000d7f565b60405180910390fd5b6200035982826200037160201b62000b401760201c565b5050565b6000608051905090565b6000600254905090565b620003816200035d60201b60201c565b81620003976200036760201b620007231760201c565b620003a3919062000cf4565b1115620003e7576040517f08c379a0000000000000000000000000000000000000000000000000000000008152600401620003de9062000d7f565b60405180910390fd5b620003fe82826200040260201b62000baa1760201c565b5050565b600073ffffffffffffffffffffffffffffffffffffffff168273ffffffffffffffffffffffffffffffffffffffff160362000474576040517f08c379a00000000000000000000000000000000000000000000000000000000081526004016200046b9062000df1565b60405180910390fd5b62000488600083836200056f60201b60201c565b80600260008282546200049c919062000cf4565b92505081905550806000808473ffffffffffffffffffffffffffffffffffffffff1673ffffffffffffffffffffffffffffffffffffffff168152602001908152602001600020600082825401925050819055508173ffffffffffffffffffffffffffffffffffffffff16600073ffffffffffffffffffffffffffffffffffffffff167fddf252ad1be2c89b69c2b068fc378daa952ba7f163c4a11628f55a4df523b3ef836040516200054f919062000e24565b60405180910390a36200056b600083836200064760201b60201c565b5050565b600073ffffffffffffffffffffffffffffffffffffffff168373ffffffffffffffffffffffffffffffffffffffff1614158015620005d957504173ffffffffffffffffffffffffffffffffffffffff168273ffffffffffffffffffffffffffffffffffffffff1614155b8015620006135750600073ffffffffffffffffffffffffffffffffffffffff164173ffffffffffffffffffffffffffffffffffffffff1614155b156200062a57620006296200064c60201b60201c565b5b620006428383836200066260201b62000d001760201c565b505050565b505050565b6200066041600654620002cc60201b60201c565b565b505050565b600080fd5b6000819050919050565b62000681816200066c565b81146200068d57600080fd5b50565b600081519050620006a18162000676565b92915050565b60008060408385031215620006c157620006c062000667565b5b6000620006d18582860162000690565b9250506020620006e48582860162000690565b9150509250929050565b7f4e487b7100000000000000000000000000000000000000000000000000000000600052601160045260246000fd5b60008160011c9050919050565b6000808291508390505b60018511156200077c57808604811115620007545762000753620006ee565b5b6001851615620007645780820291505b808102905062000774856200071d565b945062000734565b94509492505050565b6000826200079757600190506200086a565b81620007a757600090506200086a565b8160018114620007c05760028114620007cb5762000801565b60019150506200086a565b60ff841115620007e057620007df620006ee565b5b8360020a915084821115620007fa57620007f9620006ee565b5b506200086a565b5060208310610133831016604e8410600b84101617156200083b5782820a905083811115620008355762000834620006ee565b5b6200086a565b6200084a84848460016200072a565b92509050818404811115620008645762000863620006ee565b5b81810290505b9392505050565b600060ff82169050919050565b60006200088b826200066c565b9150620008988362000871565b9250620008c77fffffffffffffffffffffffffffffffffffffffffffffffffffffffffffffffff848462000785565b905092915050565b6000620008dc826200066c565b9150620008e9836200066c565b9250828202620008f9816200066c565b91508282048414831517620009135762000912620006ee565b5b5092915050565b600081519050919050565b7f4e487b7100000000000000000000000000000000000000000000000000000000600052604160045260246000fd5b7f4e487b7100000000000000000000000000000000000000000000000000000000600052602260045260246000fd5b600060028204905060018216806200099c57607f821691505b602082108103620009b257620009b162000954565b5b50919050565b60008190508160005260206000209050919050565b60006020601f8301049050919050565b600082821b905092915050565b60006008830262000a1c7fffffffffffffffffffffffffffffffffffffffffffffffffffffffffffffffff82620009dd565b62000a288683620009dd565b95508019841693508086168417925050509392505050565b6000819050919050565b600062000a6b62000a6562000a5f846200066c565b62000a40565b6200066c565b9050919050565b6000819050919050565b62000a878362000a4a565b62000a9f62000a968262000a72565b848454620009ea565b825550505050565b600090565b62000ab662000aa7565b62000ac381848462000a7c565b505050565b5b8181101562000aeb5762000adf60008262000aac565b60018101905062000ac9565b5050565b601f82111562000b3a5762000b0481620009b8565b62000b0f84620009cd565b8101602085101562000b1f578190505b62000b3762000b2e85620009cd565b83018262000ac8565b50505b505050565b600082821c905092915050565b600062000b5f6000198460080262000b3f565b1980831691505092915050565b600062000b7a838362000b4c565b9150826002028217905092915050565b62000b95826200091a565b67ffffffffffffffff81111562000bb15762000bb062000925565b5b62000bbd825462000983565b62000bca82828562000aef565b600060209050601f83116001811462000c02576000841562000bed578287015190505b62000bf9858262000b6c565b86555062000c69565b601f19841662000c1286620009b8565b60005b8281101562000c3c5784890151825560018201915060208501945060208101905062000c15565b8683101562000c5c578489015162000c58601f89168262000b4c565b8355505b6001600288020188555050505b505050505050565b600082825260208201905092915050565b7f45524332304361707065643a2063617020697320300000000000000000000000600082015250565b600062000cba60158362000c71565b915062000cc78262000c82565b602082019050919050565b6000602082019050818103600083015262000ced8162000cab565b9050919050565b600062000d01826200066c565b915062000d0e836200066c565b925082820190508082111562000d295762000d28620006ee565b5b92915050565b7f45524332304361707065643a2063617020657863656564656400000000000000600082015250565b600062000d6760198362000c71565b915062000d748262000d2f565b602082019050919050565b6000602082019050818103600083015262000d9a8162000d58565b9050919050565b7f45524332303a206d696e7420746f20746865207a65726f206164647265737300600082015250565b600062000dd9601f8362000c71565b915062000de68262000da1565b602082019050919050565b6000602082019050818103600083015262000e0c8162000dca565b9050919050565b62000e1e816200066c565b82525050565b600060208201905062000e3b600083018462000e13565b92915050565b60805161275562000e5d600039600061079901526127556000f3fe608060405234801561001057600080fd5b50600436106101585760003560e01c80635c975abb116100c35780638da5cb5b1161007c5780638da5cb5b1461037d57806395d89b411461039b578063a457c2d7146103b9578063a9059cbb146103e9578063dd62ed3e14610419578063f2fde38b1461044957610158565b80635c975abb146102f557806370a0823114610313578063715018a61461034357806379cc67901461034d57806383197ef0146103695780638456cb591461037357610158565b806323b872dd1161011557806323b872dd14610233578063313ce56714610263578063355274ea14610281578063395093511461029f5780633f4ba83a146102cf57806342966c68146102d957610158565b8063058ecdb41461015d57806306fdde031461018d578063095ea7b3146101ab5780630ac168a1146101db57806318160ddd146101f95780631a18e70714610217575b600080fd5b610177600480360381019061017291906117fc565b610465565b604051610184919061184b565b60405180910390f35b610195610668565b6040516101a291906118f6565b60405180910390f35b6101c560048036038101906101c09190611976565b6106fa565b6040516101d291906119d1565b60405180910390f35b6101e361071d565b6040516101f0919061184b565b60405180910390f35b610201610723565b60405161020e919061184b565b60405180910390f35b610231600480360381019061022c91906119ec565b61072d565b005b61024d60048036038101906102489190611a19565b61075d565b60405161025a91906119d1565b60405180910390f35b61026b61078c565b6040516102789190611a88565b60405180910390f35b610289610795565b604051610296919061184b565b60405180910390f35b6102b960048036038101906102b49190611976565b6107bd565b6040516102c691906119d1565b60405180910390f35b6102d76107f4565b005b6102f360048036038101906102ee91906119ec565b610806565b005b6102fd61081a565b60405161030a91906119d1565b60405180910390f35b61032d60048036038101906103289190611aa3565b610831565b60405161033a919061184b565b60405180910390f35b61034b610879565b005b61036760048036038101906103629190611976565b61088d565b005b6103716108ad565b005b61037b6108ce565b005b6103856108e0565b6040516103929190611adf565b60405180910390f35b6103a361090a565b6040516103b091906118f6565b60405180910390f35b6103d360048036038101906103ce9190611976565b61099c565b6040516103e091906119d1565b60405180910390f35b61040360048036038101906103fe9190611976565b610a13565b60405161041091906119d1565b60405180910390f35b610433600480360381019061042e9190611afa565b610a36565b604051610440919061184b565b60405180910390f35b610463600480360381019061045e9190611aa3565b610abd565b005b600061046f610d05565b600082036104c557827f11c6bf55864ff83827df712625d7a80e5583eef0264921025e7cd22003a215116104a1610723565b6040516104ae919061184b565b60405180910390a26104be610723565b9050610662565b60006104cf61078c565b600a6104db9190611c9c565b90506000831015610567576104ee610795565b61052584836104fd9190611ce7565b61051784610509610723565b610d8390919063ffffffff16565b610d9990919063ffffffff16565b1115610566576040517f08c379a000000000000000000000000000000000000000000000000000000000815260040161055d90611d8d565b60405180910390fd5b5b60006105a084836105789190611dad565b61059284610584610723565b610d8390919063ffffffff16565b610d9990919063ffffffff16565b90506105aa61078c565b600a6105b69190611c9c565b61012c6105c39190611de1565b811015610605576040517f08c379a00000000000000000000000000000000000000000000000000000000081526004016105fc90611e95565b60405180910390fd5b6000610621610612610723565b83610daf90919063ffffffff16565b9050857f11c6bf55864ff83827df712625d7a80e5583eef0264921025e7cd22003a2151182604051610653919061184b565b60405180910390a28193505050505b92915050565b60606003805461067790611ee4565b80601f01602080910402602001604051908101604052809291908181526020018280546106a390611ee4565b80156106f05780601f106106c5576101008083540402835291602001916106f0565b820191906000526020600020905b8154815290600101906020018083116106d357829003601f168201915b5050505050905090565b600080610705610dc5565b9050610712818585610dcd565b600191505092915050565b60065481565b6000600254905090565b610735610d05565b61073d61078c565b600a6107499190611c9c565b816107549190611de1565b60068190555050565b600080610768610dc5565b9050610775858285610f96565b610780858585611022565b60019150509392505050565b60006012905090565b60007f0000000000000000000000000000000000000000000000000000000000000000905090565b6000806107c8610dc5565b90506107e98185856107da8589610a36565b6107e49190611dad565b610dcd565b600191505092915050565b6107fc610d05565b610804611298565b565b610817610811610dc5565b826112fb565b50565b6000600560009054906101000a900460ff16905090565b60008060008373ffffffffffffffffffffffffffffffffffffffff1673ffffffffffffffffffffffffffffffffffffffff168152602001908152602001600020549050919050565b610881610d05565b61088b60006114c8565b565b61089f82610899610dc5565b83610f96565b6108a982826112fb565b5050565b6108b5610d05565b3373ffffffffffffffffffffffffffffffffffffffff16ff5b6108d6610d05565b6108de61158e565b565b6000600560019054906101000a900473ffffffffffffffffffffffffffffffffffffffff16905090565b60606004805461091990611ee4565b80601f016020809104026020016040519081016040528092919081815260200182805461094590611ee4565b80156109925780601f1061096757610100808354040283529160200191610992565b820191906000526020600020905b81548152906001019060200180831161097557829003601f168201915b5050505050905090565b6000806109a7610dc5565b905060006109b58286610a36565b9050838110156109fa576040517f08c379a00000000000000000000000000000000000000000000000000000000081526004016109f190611f87565b60405180910390fd5b610a078286868403610dcd565b60019250505092915050565b600080610a1e610dc5565b9050610a2b818585611022565b600191505092915050565b6000600160008473ffffffffffffffffffffffffffffffffffffffff1673ffffffffffffffffffffffffffffffffffffffff16815260200190815260200160002060008373ffffffffffffffffffffffffffffffffffffffff1673ffffffffffffffffffffffffffffffffffffffff16815260200190815260200160002054905092915050565b610ac5610d05565b600073ffffffffffffffffffffffffffffffffffffffff168173ffffffffffffffffffffffffffffffffffffffff1603610b34576040517f08c379a0000000000000000000000000000000000000000000000000000000008152600401610b2b90612019565b60405180910390fd5b610b3d816114c8565b50565b610b48610795565b81610b51610723565b610b5b9190611dad565b1115610b9c576040517f08c379a0000000000000000000000000000000000000000000000000000000008152600401610b9390612085565b60405180910390fd5b610ba68282610baa565b5050565b600073ffffffffffffffffffffffffffffffffffffffff168273ffffffffffffffffffffffffffffffffffffffff1603610c19576040517f08c379a0000000000000000000000000000000000000000000000000000000008152600401610c10906120f1565b60405180910390fd5b610c25600083836115f1565b8060026000828254610c379190611dad565b92505081905550806000808473ffffffffffffffffffffffffffffffffffffffff1673ffffffffffffffffffffffffffffffffffffffff168152602001908152602001600020600082825401925050819055508173ffffffffffffffffffffffffffffffffffffffff16600073ffffffffffffffffffffffffffffffffffffffff167fddf252ad1be2c89b69c2b068fc378daa952ba7f163c4a11628f55a4df523b3ef83604051610ce8919061184b565b60405180910390a3610cfc600083836116b1565b5050565b505050565b610d0d610dc5565b73ffffffffffffffffffffffffffffffffffffffff16610d2b6108e0565b73ffffffffffffffffffffffffffffffffffffffff1614610d81576040517f08c379a0000000000000000000000000000000000000000000000000000000008152600401610d789061215d565b60405180910390fd5b565b60008183610d919190611de1565b905092915050565b60008183610da791906121ac565b905092915050565b60008183610dbd9190611ce7565b905092915050565b600033905090565b600073ffffffffffffffffffffffffffffffffffffffff168373ffffffffffffffffffffffffffffffffffffffff1603610e3c576040517f08c379a0000000000000000000000000000000000000000000000000000000008152600401610e339061224f565b60405180910390fd5b600073ffffffffffffffffffffffffffffffffffffffff168273ffffffffffffffffffffffffffffffffffffffff1603610eab576040517f08c379a0000000000000000000000000000000000000000000000000000000008152600401610ea2906122e1565b60405180910390fd5b80600160008573ffffffffffffffffffffffffffffffffffffffff1673ffffffffffffffffffffffffffffffffffffffff16815260200190815260200160002060008473ffffffffffffffffffffffffffffffffffffffff1673ffffffffffffffffffffffffffffffffffffffff168152602001908152602001600020819055508173ffffffffffffffffffffffffffffffffffffffff168373ffffffffffffffffffffffffffffffffffffffff167f8c5be1e5ebec7d5bd14f71427d1e84f3dd0314c0f7b2291e5b200ac8c7c3b92583604051610f89919061184b565b60405180910390a3505050565b6000610fa28484610a36565b90507fffffffffffffffffffffffffffffffffffffffffffffffffffffffffffffffff811461101c578181101561100e576040517f08c379a00000000000000000000000000000000000000000000000000000000081526004016110059061234d565b60405180910390fd5b61101b8484848403610dcd565b5b50505050565b600073ffffffffffffffffffffffffffffffffffffffff168373ffffffffffffffffffffffffffffffffffffffff1603611091576040517f08c379a0000000000000000000000000000000000000000000000000000000008152600401611088906123df565b60405180910390fd5b600073ffffffffffffffffffffffffffffffffffffffff168273ffffffffffffffffffffffffffffffffffffffff1603611100576040517f08c379a00000000000000000000000000000000000000000000000000000000081526004016110f790612471565b60405180910390fd5b61110b8383836115f1565b60008060008573ffffffffffffffffffffffffffffffffffffffff1673ffffffffffffffffffffffffffffffffffffffff16815260200190815260200160002054905081811015611191576040517f08c379a000000000000000000000000000000000000000000000000000000000815260040161118890612503565b60405180910390fd5b8181036000808673ffffffffffffffffffffffffffffffffffffffff1673ffffffffffffffffffffffffffffffffffffffff16815260200190815260200160002081905550816000808573ffffffffffffffffffffffffffffffffffffffff1673ffffffffffffffffffffffffffffffffffffffff168152602001908152602001600020600082825401925050819055508273ffffffffffffffffffffffffffffffffffffffff168473ffffffffffffffffffffffffffffffffffffffff167fddf252ad1be2c89b69c2b068fc378daa952ba7f163c4a11628f55a4df523b3ef8460405161127f919061184b565b60405180910390a36112928484846116b1565b50505050565b6112a06116b6565b6000600560006101000a81548160ff0219169083151502179055507f5db9ee0a495bf2e6ff9c91a7834c1ba4fdd244a5e8aa4e537bd38aeae4b073aa6112e4610dc5565b6040516112f19190611adf565b60405180910390a1565b600073ffffffffffffffffffffffffffffffffffffffff168273ffffffffffffffffffffffffffffffffffffffff160361136a576040517f08c379a000000000000000000000000000000000000000000000000000000000815260040161136190612595565b60405180910390fd5b611376826000836115f1565b60008060008473ffffffffffffffffffffffffffffffffffffffff1673ffffffffffffffffffffffffffffffffffffffff168152602001908152602001600020549050818110156113fc576040517f08c379a00000000000000000000000000000000000000000000000000000000081526004016113f390612627565b60405180910390fd5b8181036000808573ffffffffffffffffffffffffffffffffffffffff1673ffffffffffffffffffffffffffffffffffffffff1681526020019081526020016000208190555081600260008282540392505081905550600073ffffffffffffffffffffffffffffffffffffffff168373ffffffffffffffffffffffffffffffffffffffff167fddf252ad1be2c89b69c2b068fc378daa952ba7f163c4a11628f55a4df523b3ef846040516114af919061184b565b60405180910390a36114c3836000846116b1565b505050565b6000600560019054906101000a900473ffffffffffffffffffffffffffffffffffffffff16905081600560016101000a81548173ffffffffffffffffffffffffffffffffffffffff021916908373ffffffffffffffffffffffffffffffffffffffff1602179055508173ffffffffffffffffffffffffffffffffffffffff168173ffffffffffffffffffffffffffffffffffffffff167f8be0079c531659141344cd1fd0a4f28419497f9722a3daafe3b4186f6b6457e060405160405180910390a35050565b6115966116ff565b6001600560006101000a81548160ff0219169083151502179055507f62e78cea01bee320cd4e420270b5ea74000d11b0c9f74754ebdbfc544b05a2586115da610dc5565b6040516115e79190611adf565b60405180910390a1565b600073ffffffffffffffffffffffffffffffffffffffff168373ffffffffffffffffffffffffffffffffffffffff161415801561165a57504173ffffffffffffffffffffffffffffffffffffffff168273ffffffffffffffffffffffffffffffffffffffff1614155b80156116935750600073ffffffffffffffffffffffffffffffffffffffff164173ffffffffffffffffffffffffffffffffffffffff1614155b156116a1576116a0611749565b5b6116ac838383610d00565b505050565b505050565b6116be61081a565b6116fd576040517f08c379a00000000000000000000000000000000000000000000000000000000081526004016116f490612693565b60405180910390fd5b565b61170761081a565b15611747576040517f08c379a000000000000000000000000000000000000000000000000000000000815260040161173e906126ff565b60405180910390fd5b565b61175541600654611757565b565b61175f610795565b81611768610723565b6117729190611dad565b11156117b3576040517f08c379a00000000000000000000000000000000000000000000000000000000081526004016117aa90612085565b60405180910390fd5b6117bd8282610b40565b5050565b600080fd5b6000819050919050565b6117d9816117c6565b81146117e457600080fd5b50565b6000813590506117f6816117d0565b92915050565b60008060408385031215611813576118126117c1565b5b6000611821858286016117e7565b9250506020611832858286016117e7565b9150509250929050565b611845816117c6565b82525050565b6000602082019050611860600083018461183c565b92915050565b600081519050919050565b600082825260208201905092915050565b60005b838110156118a0578082015181840152602081019050611885565b60008484015250505050565b6000601f19601f8301169050919050565b60006118c882611866565b6118d28185611871565b93506118e2818560208601611882565b6118eb816118ac565b840191505092915050565b6000602082019050818103600083015261191081846118bd565b905092915050565b600073ffffffffffffffffffffffffffffffffffffffff82169050919050565b600061194382611918565b9050919050565b61195381611938565b811461195e57600080fd5b50565b6000813590506119708161194a565b92915050565b6000806040838503121561198d5761198c6117c1565b5b600061199b85828601611961565b92505060206119ac858286016117e7565b9150509250929050565b60008115159050919050565b6119cb816119b6565b82525050565b60006020820190506119e660008301846119c2565b92915050565b600060208284031215611a0257611a016117c1565b5b6000611a10848285016117e7565b91505092915050565b600080600060608486031215611a3257611a316117c1565b5b6000611a4086828701611961565b9350506020611a5186828701611961565b9250506040611a62868287016117e7565b9150509250925092565b600060ff82169050919050565b611a8281611a6c565b82525050565b6000602082019050611a9d6000830184611a79565b92915050565b600060208284031215611ab957611ab86117c1565b5b6000611ac784828501611961565b91505092915050565b611ad981611938565b82525050565b6000602082019050611af46000830184611ad0565b92915050565b60008060408385031215611b1157611b106117c1565b5b6000611b1f85828601611961565b9250506020611b3085828601611961565b9150509250929050565b7f4e487b7100000000000000000000000000000000000000000000000000000000600052601160045260246000fd5b60008160011c9050919050565b6000808291508390505b6001851115611bc057808604811115611b9c57611b9b611b3a565b5b6001851615611bab5780820291505b8081029050611bb985611b69565b9450611b80565b94509492505050565b600082611bd95760019050611c95565b81611be75760009050611c95565b8160018114611bfd5760028114611c0757611c36565b6001915050611c95565b60ff841115611c1957611c18611b3a565b5b8360020a915084821115611c3057611c2f611b3a565b5b50611c95565b5060208310610133831016604e8410600b8410161715611c6b5782820a905083811115611c6657611c65611b3a565b5b611c95565b611c788484846001611b76565b92509050818404811115611c8f57611c8e611b3a565b5b81810290505b9392505050565b6000611ca7826117c6565b9150611cb283611a6c565b9250611cdf7fffffffffffffffffffffffffffffffffffffffffffffffffffffffffffffffff8484611bc9565b905092915050565b6000611cf2826117c6565b9150611cfd836117c6565b9250828203905081811115611d1557611d14611b3a565b5b92915050565b7f43616e6e6f7420646563726561736520737570706c79206265796f6e6420636160008201527f7000000000000000000000000000000000000000000000000000000000000000602082015250565b6000611d77602183611871565b9150611d8282611d1b565b604082019050919050565b60006020820190508181036000830152611da681611d6a565b9050919050565b6000611db8826117c6565b9150611dc3836117c6565b9250828201905080821115611ddb57611dda611b3a565b5b92915050565b6000611dec826117c6565b9150611df7836117c6565b9250828202611e05816117c6565b91508282048414831517611e1c57611e1b611b3a565b5b5092915050565b7f43616e6e6f7420646563726561736520737570706c792062656c6f77206d696e60008201527f696d756d00000000000000000000000000000000000000000000000000000000602082015250565b6000611e7f602483611871565b9150611e8a82611e23565b604082019050919050565b60006020820190508181036000830152611eae81611e72565b9050919050565b7f4e487b7100000000000000000000000000000000000000000000000000000000600052602260045260246000fd5b60006002820490506001821680611efc57607f821691505b602082108103611f0f57611f0e611eb5565b5b50919050565b7f45524332303a2064656372656173656420616c6c6f77616e63652062656c6f7760008201527f207a65726f000000000000000000000000000000000000000000000000000000602082015250565b6000611f71602583611871565b9150611f7c82611f15565b604082019050919050565b60006020820190508181036000830152611fa081611f64565b9050919050565b7f4f776e61626c653a206e6577206f776e657220697320746865207a65726f206160008201527f6464726573730000000000000000000000000000000000000000000000000000602082015250565b6000612003602683611871565b915061200e82611fa7565b604082019050919050565b6000602082019050818103600083015261203281611ff6565b9050919050565b7f45524332304361707065643a2063617020657863656564656400000000000000600082015250565b600061206f601983611871565b915061207a82612039565b602082019050919050565b6000602082019050818103600083015261209e81612062565b9050919050565b7f45524332303a206d696e7420746f20746865207a65726f206164647265737300600082015250565b60006120db601f83611871565b91506120e6826120a5565b602082019050919050565b6000602082019050818103600083015261210a816120ce565b9050919050565b7f4f776e61626c653a2063616c6c6572206973206e6f7420746865206f776e6572600082015250565b6000612147602083611871565b915061215282612111565b602082019050919050565b600060208201905081810360008301526121768161213a565b9050919050565b7f4e487b7100000000000000000000000000000000000000000000000000000000600052601260045260246000fd5b60006121b7826117c6565b91506121c2836117c6565b9250826121d2576121d161217d565b5b828204905092915050565b7f45524332303a20617070726f76652066726f6d20746865207a65726f2061646460008201527f7265737300000000000000000000000000000000000000000000000000000000602082015250565b6000612239602483611871565b9150612244826121dd565b604082019050919050565b600060208201905081810360008301526122688161222c565b9050919050565b7f45524332303a20617070726f766520746f20746865207a65726f20616464726560008201527f7373000000000000000000000000000000000000000000000000000000000000602082015250565b60006122cb602283611871565b91506122d68261226f565b604082019050919050565b600060208201905081810360008301526122fa816122be565b9050919050565b7f45524332303a20696e73756666696369656e7420616c6c6f77616e6365000000600082015250565b6000612337601d83611871565b915061234282612301565b602082019050919050565b600060208201905081810360008301526123668161232a565b9050919050565b7f45524332303a207472616e736665722066726f6d20746865207a65726f20616460008201527f6472657373000000000000000000000000000000000000000000000000000000602082015250565b60006123c9602583611871565b91506123d48261236d565b604082019050919050565b600060208201905081810360008301526123f8816123bc565b9050919050565b7f45524332303a207472616e7366657220746f20746865207a65726f206164647260008201527f6573730000000000000000000000000000000000000000000000000000000000602082015250565b600061245b602383611871565b9150612466826123ff565b604082019050919050565b6000602082019050818103600083015261248a8161244e565b9050919050565b7f45524332303a207472616e7366657220616d6f756e742065786365656473206260008201527f616c616e63650000000000000000000000000000000000000000000000000000602082015250565b60006124ed602683611871565b91506124f882612491565b604082019050919050565b6000602082019050818103600083015261251c816124e0565b9050919050565b7f45524332303a206275726e2066726f6d20746865207a65726f2061646472657360008201527f7300000000000000000000000000000000000000000000000000000000000000602082015250565b600061257f602183611871565b915061258a82612523565b604082019050919050565b600060208201905081810360008301526125ae81612572565b9050919050565b7f45524332303a206275726e20616d6f756e7420657863656564732062616c616e60008201527f6365000000000000000000000000000000000000000000000000000000000000602082015250565b6000612611602283611871565b915061261c826125b5565b604082019050919050565b6000602082019050818103600083015261264081612604565b9050919050565b7f5061757361626c653a206e6f7420706175736564000000000000000000000000600082015250565b600061267d601483611871565b915061268882612647565b602082019050919050565b600060208201905081810360008301526126ac81612670565b9050919050565b7f5061757361626c653a2070617573656400000000000000000000000000000000600082015250565b60006126e9601083611871565b91506126f4826126b3565b602082019050919050565b60006020820190508181036000830152612718816126dc565b905091905056fea26469706673582212205a23422c6fe575f5eab413d06f5ca52bea6b9502145298d842157162804ed1d764736f6c63430008110033",
  "linkReferences": {},
  "deployedLinkReferences": {}
}